:02000004C0D06A
:10000000B0B590B0044662B600F06EFC01AD284673
:1000100000F0FAFEA885000417D101A800F0D0FC7A
:100020000B9000F08BFC0D2802D3FF2000F0AEFCFB
:1000300001200102002C17D02068FF31884202D035
:10004000616800F01FFC00F095FC00F0ADFC01A918
:10005000884202D10B9800F0B3FC01A8808D0028E3
:100060000BD1002010B0B0BD0F900E910448784421
:100070000D900DA800F070FCF3E700F03AFCC046CC
:100080006A10000003B4014811E000002F000000D6
:1000900003B401480BE000003200000003B4014843
:1000A00005E000004400000003B40248FFE70249F5
:1000B000084700007100000001001200F0B593B085
:1000C00003920D460346012218980146049291437B
:1000D0001E224A4019990A430027002A3A460593EE
:1000E00016D106AE33243246234600F065F830467A
:1000F000214600F004FF3318221A2D49794418468E
:1001000000F09CFE3046214600F0F9FE059B0246B9
:1001100006A802928018274E7E44D95D0F240A0952
:100120002140715C4170B15C0170801C7F1C142FF8
:10013000F3D104980102039F3846FFF7AFFF002870
:1001400034D12020019006AA0092029B283301217D
:1001500038460491FFF79CFF002827D13846FFF767
:1001600091FF0020024604990A4043080599C95CA2
:10017000002A01D0214000E00909092901D8715C59
:100180000BE02F4606ADEB5C920004255540EB409A
:100190001A07715C00D520393D462954401C282897
:1001A000E0D128200021295413B0F0BD00F0A1FBBC
:1001B000140E0000FB0D0000F0B587B002930B4653
:1001C0000746002101920691CEB2701C0299884226
:1001D00032D20A24002538461946224605932B467A
:1001E00000F088FC0490039122462B4600F0A2FC0C
:1001F000391A30200843019A9055069C611C092346
:10020000DB1B2B46059FBB41049F039BDBD3C9B27D
:10021000555421060ED0117891551070701E022889
:1002200008D30121145C535C13545454491C401EE0
:100230008142F7D307B0F0BD014800F05AFBC04639
:1002400002650000F0B581B014460E46054601294E
:100250000AD12878302807D1022B2ED300206070D5
:100260003020207001205FE00698B04222D2B11CFD
:10027000994222D8311A009109D02946009B27467D
:100280000A783A70491C5B1E7F1C002BF8D10028AD
:10029000009A114602D02E21A154511CB24228D2FC
:1002A0006318AD180022AE5C9E54521C9042FAD1E5
:1002B0008A181FE0C11C994201D9002034E0871B35
:1002C0002E20607030202070002F06D0A01C30221D
:1002D000394600F060FDB91C00E00221002E08D074
:1002E000621800202B5C1354401C8642FAD10A1875
:1002F00000E00A460025A5540120914214D2002DA9
:100300000B4600D02B46655C302D00D00023491CE5
:100310008A421D46F3D1002B06D00021E1545A1E1B
:10032000A35C2E2B00D1A15401B0F0BDF0B58DB06F
:1003300001930392202902D900200DB0F0BD0E4692
:10034000074605AD2021284600F018FDA81B2030E7
:100350003946324600F017FD287800280BD105A851
:10036000401C002211461F2A03D04A1C435C002B6C
:10037000F8D01F2940D2002005A90A5A52BA0A52C1
:10038000801C2028F8D105A8441C019B029405A8D4
:100390000078002809D1002108461F2903D0411CFC
:1003A000225C002AF8D01E281BD8002BC4D004934E
:1003B0000027384605ACE15B000445180A262846AC
:1003C000314600F00BFBE0534643A81BBF1C202F17
:1003D000F0D130210843049B5B1E0399C854029C52
:1003E000D5E7039CE1180198C51A20462A4600F07B
:1003F000CEFC0020605507E0019A022A9CD30349F5
:100400007944039800F03CFD012096E72A0B000098
:10041000F0B59DB0039302920C46064604AF6425E6
:100420003846294600F0AAFC304621463A462B467B
:10043000FFF77CFF002826D0239D229E04AF642175
:10044000384600F05CFD01900C21039800F057FD48
:10045000C4B2AC422A4600D822463046039900F086
:1004600092FC029800903219E04343190198C1B2FE
:100470003846FFF7E7FE002805D0A819401E0021E6
:1004800001701DB0F0BD072000F033FA80B5202ABE
:1004900000D3202200F07BFC80BD000010B5044694
:1004A0000948A083A168A069142200F07BFC0228FF
:1004B00000D0032060770420A077022020776068B6
:1004C0000068A530E06010BD02020000F0B581B008
:1004D00004460078012605283BD120699C2801D2DA
:1004E000002636E0E5689C21284600F047FC96355A
:1004F00000950027184D7D44286800F009FA01781E
:100500004278120251188278C078000280180004E4
:10051000401861690A784B781B029A188B78C97861
:100520000902C91809048918884206D02D1D7F1CAC
:100530000D2FE1D10099487904E000994F71F8B28C
:100540000C2806D0002802D00A28C9D10C20087037
:100550000426667001B0F0BDB20B000010B5962203
:100560008A5C0C469634032A06DC002A0ED0012A47
:100570000CD0022A0AD013E0042A07D0072A05D09B
:10058000082A0DD1C3680C33142202E0C368283155
:10059000202208461946FFF779FF0D20207010BD74
:1005A0000021017510BDB0B5044681689822002075
:1005B0008852042525759B228A5C0A2A01D0002ACC
:1005C00003D12046FFF7CAFF28462075B0BD0000C2
:1005D000F0B581B00091054600270D4C7C44E01930
:1005E00000F096F906460C2100F089FC02463046E0
:1005F000294600F072FC002804D00D37752FEED18B
:10060000002003E0307B00990870012001B0F0BDAC
:100610005009000070B504468568C0682E469436BF
:10062000002808D0883528463146FFF7D1FF00283A
:1006300010D106200FE01220308004206075207D4C
:10064000401C207588350A4979440C22284600F060
:1006500017FC09E004206075E16814310C2228467B
:1006600000F00EFC012070700420607570BDC04663
:1006700059090000B0B504468568C0682269104970
:10068000794400F0FDFB6069A2690E49794400F0ED
:10069000F7FB9B20285C0A2801D000280DD1606957
:1006A000A2690949794400F0EBFB6069A269074936
:1006B000794400F0C3FB042000E000202077B0BDA7
:1006C0004F0900004C090000340900002D0900000A
:1006D00080B582B0C26A30231370C26A7823537027
:1006E0009B228A5C092A10D80123934017225201C9
:1006F00013420AD002681268C06A00230093019373
:10070000831C08461946FFF7D9FC02B080BD0000E3
:1007100070B582B00C4605469B20085C0E469436A8
:1007200004280CDC012817DD022827D003282AD052
:1007300004285DD1686AAA6A2F4979443FE00628F7
:1007400013DD072824D0082827D0092850D1686A4B
:10075000AA6A2B49794445E000282CD0012847D1CA
:10076000686AAA6A2349794429E0052836D0062810
:100770003ED1686AAA6A2149794433E0686AAA6A64
:10078000214979441BE0686AAA6A2049794416E045
:10079000686AAA6A1F49794424E0686AAA6A1E49FD
:1007A000794400F06DFB3278E86A64210090019191
:1007B000204648300CE0686AAA6A1249794400F081
:1007C0005FFB3278E86A642100900191204628306E
:1007D000883420212346FFF71BFE09E0686AAA6AD5
:1007E0000B49794400F04CFB28462146FFF770FF87
:1007F00002B070BD85080000DB080000B5080000ED
:100800000509000029080000710800007A080000AE
:1008100041080000A2080000AC08000070B50546C1
:10082000C469406AA96A00F0A9FAE86A296B00F075
:10083000A5FA2020285C2E462036012806D0002864
:1008400018D128462146FFF763FF11E0686AAA6ABB
:100850000A49794400F014FBE86A2A6B0849794494
:1008600000F00EFBE86A2A6B8934214600F0E6FAB4
:10087000042000E00020307570BDC0464008000034
:100880003D08000080B5FF221346043398420CDC7B
:100890000232904218D081225200904218D09842E1
:1008A00021D10846FFF7FAFD80BD41239B00984205
:1008B00012D00632904213D083225200904212D1BD
:1008C0000846FFF7ABFF80BD0846FFF7FFFD80BD80
:1008D0000846FFF768FE80BD0846FFF79BFE80BD17
:1008E0000846FFF7C7FE80BD80B5002000F068F81D
:1008F00080BD044600F058F8214600F091FA00004F
:100900007A460249C91C891A401A70470109D0C0A9
:1009100080B50449884204D30349884201D2FFF7D5
:10092000EFFF80BD0000D0C00011D0C001DF002962
:1009300000D170470846FFF7DCFF000080B584B0A7
:10094000002002900190034801A9FFF7EFFF04B0D7
:1009500080BDC0463801006080B584B0002102919E
:100960000190034801A9FFF7E1FF04B080BDC04634
:100970000D67006080B582B0002001900248694692
:10098000FFF7D4FF02B080BD8D68006080B584B0F1
:10099000002102910190034801A9FFF7C7FF04B0AD
:1009A00080BDC046BE9A006080B582B00020019034
:1009B00002486946FFF7BAFF02B080BDB187006008
:1009C00080B584B0002102910190034801A9FFF78E
:1009D000ADFF04B080BDC046060B01600022430895
:1009E0008B4274D303098B425FD3030A8B4244D3F7
:1009F000030B8B4228D3030C8B420DD3FF22090239
:100A000012BA030C8B4202D31212090265D0030BF7
:100A10008B4219D300E0090AC30B8B4201D3CB03ED
:100A2000C01A5241830B8B4201D38B03C01A52412F
:100A3000430B8B4201D34B03C01A5241030B8B4231
:100A400001D30B03C01A5241C30A8B4201D3CB021C
:100A5000C01A5241830A8B4201D38B02C01A524101
:100A6000430A8B4201D34B02C01A5241030A8B4204
:100A700001D30B02C01A5241CDD2C3098B4201D31C
:100A8000CB01C01A524183098B4201D38B01C01A9A
:100A9000524143098B4201D34B01C01A5241030911
:100AA0008B4201D30B01C01A5241C3088B4201D3C0
:100AB000CB00C01A524183088B4201D38B00C01A6D
:100AC000524143088B4201D34B00C01A5241411A94
:100AD00000D20146524110467047FFE701B50020A1
:100AE00000F006F802BDC0460029F7D076E770474F
:100AF0007047C046002B11D1002A0FD1002900D128
:100B0000002802D00021C943080007B4024802A10E
:100B10004018029003BDC046D9FFFFFF03B46846EA
:100B200001B5029800F034F8019B9E4602B00CBC5F
:100B30007047C046F0B5CE46474680B50700994697
:100B40003B0C9C4613041B0C1D000E006146000468
:100B5000140C000C45434B4360436143C0182C0CFC
:100B600020188C46834203D980235B029846C444F4
:100B7000494679437243030C63442D042D0CC91874
:100B8000000440198918C0BCB946B046F0BDC04643
:100B9000F0B557464E464546DE46E0B504000D002A
:100BA0009246994683B08B4230D82DD04946504664
:100BB00000F0BAF829000600200000F0B5F8331A5A
:100BC0009846203B9B4633D45A4653469340424670
:100BD0001F00534693401E00AF423AD8AF4200D1A7
:100BE00078E05B46A41BBD41002B00DA75E00022D3
:100BF00000230092019301235A469340019301235D
:100C000042469340009328E08242CFD9002200233D
:100C1000009201930C9B002B01D01C605D6000983A
:100C2000019903B0F0BCBB46B246A946A046F0BD50
:100C3000424620239B1A5246DA40414613004A4658
:100C40008A40170042461F43534693401E00AF425E
:100C5000C4D900220023009201934346002BD9D02F
:100C6000FB0772081A4346467B080EE0AB4201D1EF
:100C7000A2420CD8A41A9D41012024196D410021E3
:100C8000013E24184D41002E06D0AB42EED9013E64
:100C900024196D41002EF8D1009801995B46001986
:100CA0006941002B24DB2B005A464446D3402A00DE
:100CB000E2401C005B461500002B2ADB26009E400C
:100CC000330026004746BE403200801A994100900A
:100CD00001919FE7A342BCD883E74246202300212D
:100CE0009B1A0022009101920122DA40019286E7CC
:100CF000424620239B1A2A0046469A402300F3408E
:100D0000444613432A00E2401C005B461500002BBA
:100D1000D4DA42462F002023260097409B1ADE405B
:100D20003B003343CDE7C04610B5002903D100F0A6
:100D300007F8203002E0080000F002F810BDC046BD
:100D40001C2101231B04984201D3000C10391B0AFB
:100D5000984201D3000A08391B09984201D30009BF
:100D6000043902A2105C40187047C0460403020216
:100D700001010101000000000000000010B5002288
:100D800000F009F810BD10B500F01AF810BD10B54C
:100D900000F01FF810BD0B0010B511001A0000F094
:100DA0002BF810BD30B500240139A24201D100203A
:100DB00005E0035D01340D5DAB42F6D0581B30BD3C
:100DC000002310B59A4200D110BDCC5CC45401334D
:100DD000F8E710B5884202D98B18984203D3002354
:100DE00007E08B5C8354013AFBD210BDCC5CC45449
:100DF00001339A42FAD1F8E703008218934200D1F6
:100E0000704719700133F9E7F0C041464A4653462E
:100E10005C466D4676467EC02838F0C80020704794
:100E200010307CC890469946A246AB46B54608C8E5
:100E30002838F0C8080000D10120184770B5040018
:100E400008002300A518AB420AD11C1B151BA242A7
:100E50000BD00200117800290BD11970101A06E08E
:100E600019780029F1D00133EDE700F02FF80019CF
:100E700070BD012D02D01970013D01330132E9E747
:100E8000F0B50500002A14D0501E012A1CD02C00F9
:100E90000A001600270036780132013413002500BD
:100EA0003E70002E0DD001380028F2D100222A70A9
:100EB00000E00B001A000132501E007813000028D9
:100EC000F9D1581A0138F0BD0B00EFE70023C25CDE
:100ED0000133002AFBD1581E704730B50500101EA3
:100EE00008D00024013A2B5D085D834201D1944271
:100EF00001D1181A30BD0134002BF4D1F9E70300F9
:100F000041188B4202D01A78002A01D1181A704772
:100F10000133F6E730780030313233343536373844
:100F200039616263646566004552524F5200300079
:100F30006344414900000000000000001243455492
:100F400048000000000000000012435553444300D5
:100F500000000000000006435A5258000000000044
:100F600000000012435553445400000000000000EC
:100F700006434254430000000000000000084342C2
:100F80004154000000000000000012435245500090
:100F900000000000000000126353414900000000FF
:100FA0000000000012556E6B6E6F776E20746F6BD1
:100FB000656E2E20506C6561736520636F6E746181
:100FC0006374204C656467657220737570706F720E
:100FD000742E00436F6D706F756E64004C656E64A7
:100FE0000020417373657473004D696E742E005256
:100FF000656465656D2E0052656465656D20756E6E
:101000006465726C79696E672E00426F72726F77D9
:1010100020616D6F756E742E00526570617920626B
:101020006F72726F772E00426F72726F7765722ED9
:1010300000526563697069656E742E004C69717544
:10104000696461746520626F72726F7765722E00D9
:1010500050726F706F73616C2069642E0044656C10
:101060006567617465652E005265706179696E67A8
:1010700020616D6F756E742E00416D6F756E742EEC
:1010800000537570706F72742E00436F6C6C6174D6
:101090006572616C2E00436F6E74726163740043FD
:1010A0006F6D706F756E642000000000682D71A078
:1010B000756A00DBE3122A85ECEAEBC50227750EA0
:1010C00018F80826BB9C05A962C4E3F53D3E371518
:1010D0005CA9195C8BC54912000000004574686565
:1010E0007265756D00000000000000000000000047
:1010F00000000000000000000000000000000000F0
:04000005C0D0000166
:00000001FF
